:020000040800F2
:100000000028002051160008E1150008E715000837
:10001000ED150008F3150008F915000800000000B0
:10002000000000000000000000000000FF150008B4
:100030000B16000800000000171600082316000821
:1000400099160008991600089916000899160008D4
:1000500099160008991600089916000899160008C4
:1000600099160008991600089916000899160008B4
:1000700099160008991600089916000899160008A4
:100080009916000899160008991600089916000894
:100090009916000899160008991600089916000884
:1000A0009916000899160008991600089916000874
:1000B0003116000899160008000000009916000883
:1000C00099160008000000000000000099160008C2
:1000D00000000000991600089916000800000000B2
:1000E00099160008991600089916000800000000EB
:1000F0000000000000000000000000000000000000
:0C01000000000000000000005FF808F1A3
:10010C0010B5054C237833B9044B13B10448AFF345
:10011C0000800123237010BD580000200000000057
:10012C00E82C000808B5034B1BB103490348AFF397
:10013C00008008BD000000005C000020E82C0008D6
:10014C0080B500AFA54B1B78012B40F04581A44B2B
:10015C001B78042B00F2008101A252F823F000BF9F
:10016C0081010008910100080D0200087F020008BF
:10017C00E70200089A4B01221A706421002001F05A
:10018C00A3F9E9E0002000F03DF90346012B12D160
:10019C0001224FF4FC51934801F07DFD8F4B02225C
:1001AC001A7001227E218F4801F075FD1921032060
:1001BC0001F08AF9D0E0012000F0CEF9022000F025
:1001CC0027FA894B1B68012B40F0BF80874B1B68BB
:1001DC00013B864A1360864B1B68013B844A1360C3
:1001EC00834B1B68002B06D1824B1B68804A136023
:1001FC007B4B02221A706421002001F065F9A4E007
:10020C00002000F0FFF80346012B09D101224FF426
:10021C00FC51744801F03FFD704B02221A709BE0B8
:10022C00012000F099F9032000F0F2F96E4B1B68E5
:10023C00012B40F08C806D4B1B68013B6B4A1360AB
:10024C006B4B1B68013B6A4A1360694B1B68002BA4
:10025C000AD1694B1B68664A1360684B1B68634A7A
:10026C0013605F4B03221A706421002001F02CF9FB
:10027C006DE0002000F0C6F80346012B09D10122E5
:10028C004FF4FC51574801F006FD544B02221A70F2
:10029C0062E0022000F060F9012000F0B9F9524B45
:1002AC001B68012B55D1514B1B68013B4F4A136006
:1002BC004F4B1B68013B4E4A13604C4B1B68002B89
:1002CC0006D14C4B1B68494A1360454B04221A70EB
:1002DC006421002001F0F8F83BE0002000F092F8D7
:1002EC000346012B09D101224FF4FC513D4801F08A
:1002FC00D2FC3A4B02221A702EE0012000F02CF9AD
:10030C00022000F085F9384B1B68012B23D1374BA9
:10031C001B68013B354A1360354B1B68013B344A63
:10032C001360324B1B68002B0AD1344B1B68304ACC
:10033C001360314B1B682D4A1360294B01221A7034
:10034C006421002001F0C0F805E000BF04E000BF0C
:10035C0002E000BF00E000BF294B1B78022B22D02B
:10036C00022B34DC002B02D0012B08D02FE0244BC5
:10037C0001221A700121022001F0A6F82CE01A4B80
:10038C009B68012B25D1194B1B68194A1268114621
:10039C00184600F091FD1A4B02221A7032210220ED
:1003AC0001F092F815E0104B9B68012B13D10F4B09
:1003BC001B680F4A12681146184600F0A7FD104B37
:1003CC0001221A703221022001F07EF803E000BFF6
:1003DC0002E000BF00E000BF00BF80BD8000002035
:1003EC00810000200008014000010020880000204E
:1003FC008C00002048000020400000204400002019
:10040C008500002080B483B000AF7860094A7B6817
:10041C0052F82330012B06D1064A7B68002142F8A2
:10042C002310012300E0002318460C37BD4680BC86
:10043C00704700BF7400002080B483B000AF7860B8
:10044C00044A7B68012142F8231000BF0C37BD46DB
:10045C0080BC70477400002080B582B000AF0023D0
:10046C007B6063E0354A7B6852F8232034497B6813
:10047C0041F82320334A7B6852F823202F497B68AC
:10048C0041F82320304A7B6852F823309BB219463E
:10049C002E4801F0E9FB034619462A4A7B6842F8CC
:1004AC002310264A7B6852F8232026497B6851F892
:1004BC0023309A4237D1214A7B6852F823202049B5
:1004CC007B6851F823309A422DD11D4A7B6852F833
:1004DC0023201F497B6851F823309A4215D0184AC3
:1004EC007B6852F823201A497B6841F82320184A6C
:1004FC007B6852F82330002B15D1164B4FF4FA724F
:10050C001A607868FFF798FF0DE0124B1B68013BEF
:10051C00104A13600F4B1B68002B04D10C4A7B68EC
:10052C00012142F823107B6801337B607B68022B2E
:10053C0098DD00BF00BF0837BD4680BD1800002005
:10054C00240000200C0000200000002000080140C6
:10055C00300000203C00002080B582B000AF034684
:10056C00FB71FB79032B4BD801A252F823F000BF8F
:10057C008D050008AD050008ED050008CD05000847
:10058C0001220821214801F086FB012204211F4889
:10059C0001F081FB012202211C4801F07CFB30E0C0
:1005AC0001220821194801F076FB01220421174889
:1005BC0001F071FB00220221144801F06CFB20E0D9
:1005CC0001220821114801F066FB002204210F488A
:1005DC0001F061FB012202210C4801F05CFB10E0F0
:1005EC0000220821094801F056FB0122042107488A
:1005FC0001F051FB01220221044801F04CFB00E008
:10060C0000BF00BF0837BD4680BD00BF00080140D9
:10061C0080B582B000AF0346FB71FB79032B4BD83E
:10062C0001A252F823F000BF450600086506000839
:10063C00A50600088506000801224021214801F08A
:10064C002AFB012220211F4801F025FB0122102149
:10065C001C4801F020FB30E001224021194801F038
:10066C001AFB01222021174801F015FB0022102152
:10067C00144801F010FB20E001224021114801F048
:10068C000AFB002220210F4801F005FB012210215A
:10069C000C4801F000FB10E000224021094801F059
:1006AC00FAFA01222021074801F0F5FA0122102163
:1006BC00044801F0F0FA00E000BF00BF0837BD4667
:1006CC0080BD00BF0008014080B582B000AF03467A
:1006DC00FB71FB79032B0ED0032B1EDC012B13D0EB
:1006EC00022B1AD108210F4801F0EDFA40210D48D8
:1006FC0001F0E9FA12E004210A4801F0E4FA2021A1
:10070C00084801F0E0FA09E00221064801F0DBFAA2
:10071C001021044801F0D7FA00E000BF00BF0837F1
:10072C00BD4680BD0008014080B582B000AF786046
:10073C007B68092B00F2808101A252F823F000BFE4
:10074C0075070008BD070008050800084D080008DB
:10075C0095080008DD080008250900086D09000847
:10076C00B5090008FD09000800220121B54801F077
:10077C0092FA00220221B34801F08DFA00220421E2
:10078C00B04801F088FA00220821AE4801F083FA43
:10079C0000221021AB4801F07EFA00222021A9484A
:1007AC0001F079FA01224021A64801F074FA44E1E3
:1007BC0001220121A34801F06EFA00220221A14876
:1007CC0001F069FA002204219E4801F064FA01222A
:1007DC0008219C4801F05FFA01221021994801F090
:1007EC005AFA01222021974801F055FA01224021A2
:1007FC00944801F050FA20E100220121914801F0C7
:10080C004AFA002202218F4801F045FA0122042104
:10081C008C4801F040FA002208218A4801F03BFA8A
:10082C0000221021874801F036FA01222021854848
:10083C0001F031FA00224021824801F02CFAFCE050
:10084C00002201217F4801F026FA002202217D4876
:10085C0001F021FA002204217A4801F01CFA00224E
:10086C000821784801F017FA01221021754801F08F
:10087C0012FA01222021734801F00DFA00224021C6
:10088C00704801F008FAD8E0012201216D4801F00E
:10089C0002FA002202216B4801F0FDF9002204212A
:1008AC00684801F0F8F901220821664801F0F3F9D3
:1008BC0001221021634801F0EEF900222021614849
:1008CC0001F0E9F9002240215E4801F0E4F9B4E0BE
:1008DC00002201215B4801F0DEF901220221594876
:1008EC0001F0D9F900220421564801F0D4F9002274
:1008FC000821544801F0CFF901221021514801F090
:10090C00CAF9002220214F4801F0C5F900224021EC
:10091C004C4801F0C0F990E000220121494801F057
:10092C00BAF901220221474801F0B5F9002204214D
:10093C00444801F0B0F900220821424801F0ABF91B
:10094C00002210213F4801F0A6F9002220213D4849
:10095C0001F0A1F9002240213A4801F09CF96CE029
:10096C0000220121374801F096F900220221354876
:10097C0001F091F900220421324801F08CF9012296
:10098C000821304801F087F9012210212D4801F08F
:10099C0082F9012220212B4801F07DF9012240210E
:1009AC00284801F078F948E000220121254801F09F
:1009BC0072F900220221234801F06DF90022042172
:1009CC00204801F068F9002208211E4801F063F963
:1009DC00002210211B4801F05EF900222021194849
:1009EC0001F059F900224021164801F054F924E095
:1009FC0000220121134801F04EF900220221114876
:100A0C0001F049F9002204210E4801F044F90022BA
:100A1C0008210C4801F03FF901221021094801F08E
:100A2C003AF900222021074801F035F90022402133
:100A3C00044801F030F900E000BF00BF0837BD46A4
:100A4C0080BD00BF000C014080B582B000AF786063
:100A5C007B68092B00F2BC8101A252F823F000BF85
:100A6C00950A0008E90A00083D0B0008910B0008E4
:100A7C00E50B0008390C00088D0C0008E10C00088F
:100A8C00350D0008890D000800228021D34801F0A3
:100A9C0002F900224FF48071D04801F0FCF80022DA
:100AAC004FF40071CD4801F0F6F800224FF480614C
:100ABC00CA4801F0F0F800224FF40061C74801F079
:100ACC00EAF800224FF48051C44801F0E4F8012206
:100ADC004FF40051C14801F0DEF87AE10122802187
:100AEC00BE4801F0D8F800224FF48071BB4801F0E9
:100AFC00D2F800224FF40071B84801F0CCF8012272
:100B0C004FF48061B54801F0C6F801224FF4006142
:100B1C00B24801F0C0F801224FF48051AF4801F007
:100B2C00BAF801224FF40051AC4801F0B4F850E18E
:100B3C0000228021A94801F0AEF800224FF4807108
:100B4C00A64801F0A8F801224FF40071A34801F067
:100B5C00A2F800224FF48061A04801F09CF800221A
:100B6C004FF400619D4801F096F801224FF480513A
:100B7C009A4801F090F800224FF40051974801F088
:100B8C008AF826E100228021944801F084F80022A2
:100B9C004FF48071914801F07EF800224FF40071FF
:100BAC008E4801F078F800224FF480618B4801F0F8
:100BBC0072F801224FF40061884801F06CF80122B0
:100BCC004FF48051854801F066F800224FF4005133
:100BDC00824801F060F8FCE0012280217F4801F09E
:100BEC005AF800224FF480717C4801F054F800222E
:100BFC004FF40071794801F04EF801224FF48061F6
:100C0C00764801F048F801224FF40061734801F076
:100C1C0042F800224FF48051704801F03CF8002259
:100C2C004FF400516D4801F036F8D2E000228021DB
:100C3C006A4801F030F801224FF48071674801F0E6
:100C4C002AF800224FF40071644801F024F80022C5
:100C5C004FF48061614801F01EF801224FF40061ED
:100C6C005E4801F018F800224FF480515B4801F007
:100C7C0012F800224FF40051584801F00CF8A8E08B
:100C8C0000228021554801F006F801224FF48071B2
:100C9C00524801F000F800224FF400714F4800F068
:100CAC00FAFF00224FF480614C4800F0F4FF002260
:100CBC004FF40061494800F0EEFF00224FF48051E0
:100CCC00464800F0E8FF00224FF40051434800F082
:100CDC00E2FF7EE000228021404800F0DCFF002291
:100CEC004FF480713D4800F0D6FF00224FF40071A4
:100CFC003A4800F0D0FF01224FF48061374800F0F1
:100D0C00CAFF01224FF40061344800F0C4FF0122F5
:100D1C004FF48051314800F0BEFF01224FF40051D6
:100D2C002E4800F0B8FF54E0002280212B4800F040
:100D3C00B2FF00224FF48071284800F0ACFF002273
:100D4C004FF40071254800F0A6FF00224FF480619B
:100D5C00224800F0A0FF00224FF400611F4800F071
:100D6C009AFF00224FF480511C4800F094FF00229F
:100D7C004FF40051194800F08EFF2AE00022802128
:100D8C00164800F088FF00224FF48071134800F0E1
:100D9C0082FF00224FF40071104800F07CFF00220B
:100DAC004FF480610D4800F076FF01224FF4006192
:100DBC000A4800F070FF00224FF48051074800F001
:100DCC006AFF00224FF40051044800F064FF00E079
:100DDC0000BF00BF0837BD4680BD00BF000C0140FE
:100DEC0080B500AF00228021054800F054FF01229D
:100DFC004FF48071024800F04EFF00BF80BD00BF71
:100E0C000008014080B500AF01228021054800F0A8
:100E1C0042FF00224FF48071024800F03CFF00BFFB
:100E2C0080BD00BF0008014080B500AF00224FF428
:100E3C000071054800F02FFF01224FF48061024839
:100E4C0000F029FF00BF80BD0008014080B500AF55
:100E5C0001224FF40071054800F01DFF00224FF4F1
:100E6C008061024800F017FF00BF80BD0008014000
:100E7C0080B500AF00224FF40061054800F00BFF75
:100E8C0001224FF48051024800F005FF00BF80BDE5
:100E9C000008014080B500AF01224FF40061054805
:100EAC0000F0F9FE00224FF48051024800F0F3FEEE
:100EBC0000BF80BD0008014080B582B000AF7860F3
:100ECC0039607B68013B7B603B68013B3B60FFF713
:100EDC0087FF7B680C4A82FB03129210DB17D31A34
:100EEC001846FFF721FCFFF79FFF3B68064A82FB81
:100EFC0003129210DB17D31A1846FFF7A5FD00BF9B
:100F0C000837BD4680BD00BF6766666680B582B097
:100F1C0000AF786039607B68013B7B603B68013BCC
:100F2C003B60FFF76FFF7A68114B83FB021399103C
:100F3C00D317C91A0B469B000B445B00D11A084609
:100F4C00FFF7F2FBFFF782FF3A68094B83FB0213B2
:100F5C009910D317C91A0B469B000B445B00D11A8E
:100F6C000846FFF771FD00BF0837BD4680BD00BFC6
:100F7C006766666680B582B000AF78607B68013BBF
:100F8C007B60FFF775FF7B68064A82FB03129210A9
:100F9C00DB17D31A1846FFF7C7FB00BF0837BD464F
:100FAC0080BD00BF6766666680B582B000AF7860B2
:100FBC007B68013B7B60FFF76DFF7A68084B83FB16
:100FCC0002139910D317C91A0B469B000B445B00F4
:100FDC00D11A0846FFF738FD00BF0837BD4680BD63
:100FEC006766666680B400AF0E4B01221A700E4B1A
:100FFC0000221A700D4B01221A700D4B00221A7030
:10100C000C4B00221A700C4B00221A700B4B1B68F5
:10101C000B4A13600B4B1B680B4A136000BFBD4699
:10102C0080BC7047800000208100002082000020DE
:10103C008300002084000020850000204000002058
:10104C0088000020440000208C00002080B500AFF8
:10105C0000F01EFB00F014F800F09AF800F04CF8C9
:10106C00064801F077FAFFF7BDFF0020FFF774FA8E
:10107C00FFF766F800F03EF9FAE700BF9000002099
:10108C0080B590B000AF07F1180328220021184654
:10109C0001F0F8FD3B1D00221A605A609A60DA607C
:1010AC001A610223BB610123BB621023FB62002384
:1010BC007B6307F11803184600F01EFE0346002B55
:1010CC0001D000F0F2F80F237B600023BB600023FB
:1010DC00FB6000233B6100237B613B1D0021184614
:1010EC0001F08CF80346002B01D000F0DEF800BFB5
:1010FC004037BD4680BD000080B586B000AF07F11B
:10110C00080300221A605A609A60DA603B4600229B
:10111C001A605A601D4B4FF080421A601B4B41F60F
:10112C003F725A60194B00229A60184B0A22DA60FF
:10113C00164B00221A61154B00229A61134801F0DC
:10114C00B9F90346002B01D000F0AFF84FF48053EF
:10115C00BB6007F1080319460C4801F04FFB03462E
:10116C00002B01D000F0A1F800233B6000237B6032
:10117C003B461946054801F01BFD0346002B01D0E8
:10118C0000F093F800BF1837BD4680BD90000020DA
:10119C0080B586B000AF07F1080300221A605A60D0
:1011AC009A60DA602B4B9B692A4A43F004039361E3
:1011BC00284B9B6903F004037B607B68254B9B6980
:1011CC00244A43F008039361224B9B6903F0080304
:1011DC003B603B6800227E211F4800F05CFD012231
:1011EC004FF4FC511C4800F056FD002243F6FF71F1
:1011FC001A4800F050FD41F6FE73BB600123FB6002
:10120C0000233B6102237B6107F108031946124856
:10121C0000F0AEFB43F6FF73BB600123FB600023C1
:10122C003B6102237B6107F1080319460B4800F070
:10123C009FFB4FF46043BB600023FB6001233B61C9
:10124C0007F108031946044800F092FB00BF183759
:10125C00BD4680BD0010024000080140000C01405A
:10126C0080B582B000AF7860002000F045F9012015
:10127C0000F042F9022000F03FF9032000F03CF9A5
:10128C00042000F039F9052000F036F9062000F0B2
:10129C0033F9072000F030F9082000F02DF9FFF7A2
:1012AC00DBF800BF0837BD4680BD80B400AF72B616
:1012BC0000BFFEE780B582B000AF78600C4B1B78A6
:1012CC00012B02D0022B07D00DE07868FFF752FEFD
:1012DC00074B02221A7006E07868FFF765FE044B94
:1012EC0001221A7000BF00BF0837BD4680BD00BF89
:1012FC008200002080B500AF6D4B1B78042B00F0F2
:10130C008C80042B00F3CB80022B02D0032B47D014
:10131C00C5E0684BDB68012B0BD10120FFF7D4F93A
:10132C00654B1B681846FFF7C5FF1921032000F019
:10133C00CBF80120FFF766F80346012B10D15E4B6A
:10134C001B6801335C4A13605C4B1B6801335B4ABE
:10135C001360594B1B68622B02DD574B01221A603C
:10136C000220FFF74FF80346012B0AD101224FF45C
:10137C00FC51534800F08FFC4D4B01221A70FFF7C3
:10138C0031FE0020FFF73EF80346012B40F0898028
:10139C001921032000F098F8454B03221A7080E0C5
:1013AC00444BDB68012B0BD10320FFF78DF9454B28
:1013BC001B681846FFF77EFF1921032000F084F804
:1013CC000120FFF71FF80346012B0BD13D4B1B6887
:1013DC0001333C4A13603B4B1B68622B02DD394BDB
:1013EC0001221A600220FFF70DF80346012B0AD1E7
:1013FC0001224FF4FC51324800F04DFC2C4B0122E1
:10140C001A70FFF7EFFD0020FEF7FCFF0346012BDF
:10141C0049D1274B04221A7045E0264BDB68012B7F
:10142C000BD10220FFF750F9244B1B681846FFF72D
:10143C0041FF1921032000F047F80120FEF7E2FFDD
:10144C000346012B10D11C4B1B6801331A4A136045
:10145C001A4B1B680133194A1360184B1B68622B1B
:10146C0002DD164B01221A600220FEF7CBFF034669
:10147C00012B0AD101224FF4FC51114800F00BFC56
:10148C000B4B01221A70FFF7ADFD0020FEF7BAFFDF
:10149C000346012B09D1064B01221A7005E000BF4F
:1014AC0004E000BF02E000BF00E000BF00BF80BD51
:1014BC00800000200001002040000020440000209B
:1014CC00000801404800002080B483B000AF786071
:1014DC00396007497B683A6841F82320054A7B68E4
:1014EC00002142F8231000BF0C37BD4680BC70476A
:1014FC00D80000200001002080B483B000AF7860D9
:10150C000F4A7B6852F82330002B13DD0C4A7B68A2
:10151C0052F823305A1E0A497B6841F82320084AA6
:10152C007B6852F82330002B04DC064A7B680121CF
:10153C0042F8231000BF0C37BD4680BC704700BF7B
:10154C00D80000200001002080B483B000AF0E4B07
:10155C009B690D4A43F0010393610B4B9B6903F0AC
:10156C0001037B607B68084BDB69074A43F08053BF
:10157C00D361054BDB6903F080533B603B6800BFD4
:10158C000C37BD4680BC70470010024080B584B05B
:10159C0000AF78607B681B68B3F1804F13D10C4BA4
:1015AC00DB690B4A43F00103D361094BDB6903F0A0
:1015BC000103FB60FB68002200211C2000F0A1F954
:1015CC001C2000F0BAF900BF1037BD4680BD00BF2B
:1015DC000010024080B400AFFEE780B400AFFEE71D
:1015EC0080B400AFFEE780B400AFFEE780B400AF7C
:1015FC00FEE780B400AF00BFBD4680BC704780B42E
:10160C0000AF00BFBD4680BC704780B400AF00BFC8
:10161C00BD4680BC704780B500AF00F07FF800BFBE
:10162C0080BD000080B500AF024800F0DFFF00BFB6
:10163C0080BD00BF9000002080B400AF00BFBD464D
:10164C0080BC7047FFF7F8FF0B480C490C4A00238D
:10165C0002E0D458C4500433C4188C42F9D3094A5C
:10166C00094C002301E013600432A242FBD301F0C9
:10167C0011FBFFF7EBFC7047000000205800002026
:10168C002C2D0008580000202C010020FEE7000043
:10169C0080B500AF084B1B68074A43F0100313607A
:1016AC00032000F023F90F2000F008F8FFF74CFF9F
:1016BC000023184680BD00BF0020024080B582B0D8
:1016CC0000AF7860124B1A68124B1B7819464FF416
:1016DC007A73B3FBF1F3B2FBF3F3184600F03BF96A
:1016EC000346002B01D001230EE07B680F2B0AD898
:1016FC00002279684FF0FF3000F003F9064A7B684E
:10170C001360002300E0012318460837BD4680BD56
:10171C004C000020540000205000002080B400AF8A
:10172C00054B1B781A46054B1B681344034A136080
:10173C0000BFBD4680BC704754000020280100202B
:10174C0080B400AF024B1B681846BD4680BC704786
:10175C002801002080B485B000AF78607B6803F06E
:10176C000703FB600C4BDB68BB60BA684FF6FF03EA
:10177C001340BB60FB681A02BB68134343F0BF63A2
:10178C0043F40033BB60044ABB68D36000BF14371A
:10179C00BD4680BC704700BF00ED00E080B400AFD8
:1017AC00044BDB681B0A03F007031846BD4680BCDC
:1017BC00704700BF00ED00E080B483B000AF03467B
:1017CC00FB7197F90730002B0BDBFB7903F01F0241
:1017DC00064997F907305B09012000FA02F241F83B
:1017EC00232000BF0C37BD4680BC704700E100E0F1
:1017FC0080B483B000AF03463960FB7197F90730B2
:10180C00002B0ADB3B68DAB20C4997F9073012015E
:10181C00D2B20B4483F800230AE03B68DAB20849E1
:10182C00FB7903F00F03043B1201D2B20B441A767E
:10183C0000BF0C37BD4680BC704700BF00E100E024
:10184C0000ED00E080B489B000AFF860B9607A6058
:10185C00FB6803F00703FB61FB69C3F10703042B6F
:10186C0028BF0423BB61FB690433062B02D9FB6937
:10187C00033B00E000237B614FF0FF32BB6902FAAF
:10188C0003F3DA43BB681A407B699A404FF0FF318F
:10189C007B6901FA03F3D9437B680B401343184669
:1018AC002437BD4680BC704780B582B000AF7860ED
:1018BC007B68013BB3F1807F01D301230FE00A4A1F
:1018CC007B68013B53600F214FF0FF30FFF790FF17
:1018DC00054B00229A60044B07221A60002318461D
:1018EC000837BD4680BD00BF10E000E080B582B077
:1018FC0000AF78607868FFF72DFF00BF0837BD4652
:10190C0080BD80B586B000AF0346B9607A60FB73CA
:10191C0000237B61FFF742FF78617A68B9687869C8
:10192C00FFF790FF024697F90F3011461846FFF764
:10193C005FFF00BF1837BD4680BD80B582B000AFD9
:10194C000346FB7197F907301846FFF735FF00BFC8
:10195C000837BD4680BD80B582B000AF786078682E
:10196C00FFF7A2FF034618460837BD4680BD0000AE
:10197C0080B48BB000AF7860396000237B620023A9
:10198C003B6261E101227B6A02FA03F3FB613B6873
:10199C001B68FA691340BB61BA69FB699A4240F053
:1019AC0050813B685B68974A93425ED0954A93425C
:1019BC0075D8954A934258D0934A93426FD8934A1C
:1019CC00934252D0914A934269D8914A93424CD057
:1019DC008F4A934263D88F4A934246D08D4A9342A2
:1019EC005DD8122B2AD8122B59D801A252F823F009
:1019FC00771A0008511A0008631A0008A51A000883
:101A0C00AB1A0008AB1A0008AB1A0008AB1A000896
:101A1C00AB1A0008AB1A0008AB1A0008AB1A000886
:101A2C00AB1A0008AB1A0008AB1A0008AB1A000876
:101A3C00AB1A0008591A00086D1A0008764A93422E
:101A4C0013D02CE03B68DB683B6229E03B68DB6829
:101A5C0004333B6224E03B68DB6808333B621FE0E5
:101A6C003B68DB680C333B621AE03B689B68002BDD
:101A7C0002D104233B6213E03B689B68012B05D128
:101A8C0008233B627B68FA691A6109E008233B6210
:101A9C007B68FA695A6103E000233B6200E000BFF7
:101AAC00BB69FF2B01D87B6801E07B6804337B6149
:101ABC00BB69FF2B02D87B6A9B0002E07B6A083B68
:101ACC009B003B617B691A680F213B6901FA03F3A8
:101ADC00DB431A40396A3B6901FA03F31A437B6909
:101AEC001A603B685B6803F08053002B00F0A98000
:101AFC004A4B9B69494A43F001039361474B9B69ED
:101B0C0003F00103BB60BB68454A7B6A9B08023348
:101B1C0052F82330FB607B6A03F003039B000F2217
:101B2C0002FA03F3DB43FA681340FB607B683D4A1F
:101B3C0093420DD07B683C4A934207D07B683B4A6A
:101B4C00934201D1022304E0032302E0012300E0CD
:101B5C0000237A6A02F0030292009340FA6813435E
:101B6C00FB602F497B6A9B080233FA6841F82320FB
:101B7C003B685B6803F48013002B06D02C4B9A68EF
:101B8C002B49BB6913438B6006E0294B9A68BB69F0
:101B9C00DB43274913408B603B685B6803F40013FD
:101BAC00002B06D0224BDA682149BB691343CB606A
:101BBC0006E01F4BDA68BB69DB431D491340CB6061
:101BCC003B685B6803F40033002B06D0184B5A6853
:101BDC001749BB6913434B6006E0154B5A68BB6948
:101BEC00DB43134913404B603B685B6803F4803361
:101BFC00002B1FD00E4B1A680D49BB6913430B60A9
:101C0C001FE000BF00003210000031100000221055
:101C1C0000002110000012100000111000100240F2
:101C2C000000014000080140000C01400010014080
:101C3C00000401400B4B1A68BB69DB430949134094
:101C4C000B607B6A01337B623B681A687B6A22FA01
:101C5C0003F3002B7FF496AE00BF00BF2C37BD46BC
:101C6C0080BC70470004014080B485B000AF786040
:101C7C000B467B807B689A687B881340002B02D0D4
:101C8C000123FB7301E00023FB73FB7B1846143725
:101C9C00BD4680BC704780B483B000AF78600B4603
:101CAC007B8013467B707B78002B03D07A887B6813
:101CBC001A6103E07B881A047B681A6100BF0C3739
:101CCC00BD4680BC704780B485B000AF78600B46D1
:101CDC007B807B68DB68FB607A88FB6813401A04A6
:101CEC00FB68D9437B880B401A437B681A6100BFA1
:101CFC001437BD4680BC704780B586B000AF7860A5
:101D0C007B68002B01D1012372E27B681B6803F016
:101D1C000103002B00F08780924B5B6803F00C03EF
:101D2C00042B0CD08F4B5B6803F00C03082B12D1E7
:101D3C008C4B5B6803F48033B3F5803F0BD1894B3C
:101D4C001B6803F40033002B6CD07B685B68002BA2
:101D5C0068D101234CE27B685B68B3F5803F06D108
:101D6C00804B1B687F4A43F4803313602EE07B6802
:101D7C005B68002B0CD17B4B1B687A4A23F48033B5
:101D8C001360784B1B68774A23F4802313601DE0A3
:101D9C007B685B68B3F5A02F0CD1724B1B68714A42
:101DAC0043F4802313606F4B1B686E4A43F48033FB
:101DBC0013600BE06B4B1B686A4A23F4803313608F
:101DCC00684B1B68674A23F4802313607B685B684D
:101DDC00002B13D0FFF7B4FC386108E0FFF7B0FC20
:101DEC0002463B69D31A642B01D9032300E25D4BF5
:101DFC001B6803F40033002BF0D014E0FFF7A0FCB9
:101E0C00386108E0FFF79CFC02463B69D31A642B4F
:101E1C0001D90323ECE1534B1B6803F40033002B73
:101E2C00F0D100E000BF7B681B6803F00203002BBD
:101E3C0063D04C4B5B6803F00C03002B0BD0494B6D
:101E4C005B6803F00C03082B1CD1464B5B6803F456
:101E5C008033002B16D1434B1B6803F00203002B7D
:101E6C0005D07B681B69012B01D00123C0E13D4BE0
:101E7C001B6823F0F8027B685B69DB00394913436C
:101E8C000B603AE07B681B69002B20D0364B01229B
:101E9C001A60FFF755FC386108E0FFF751FC024669
:101EAC003B69D31A022B01D90323A1E12D4B1B68EB
:101EBC0003F00203002BF0D02A4B1B6823F0F8022E
:101ECC007B685B69DB00274913430B6015E0264BED
:101EDC0000221A60FFF734FC386108E0FFF730FC91
:101EEC0002463B69D31A022B01D9032380E11D4B17
:101EFC001B6803F00203002BF0D17B681B6803F016
:101F0C000803002B3AD07B689B69002B19D0174B28
:101F1C0001221A60FFF714FC386108E0FFF710FC8F
:101F2C0002463B69D31A022B01D9032360E10D4B06
:101F3C005B6A03F00203002BF0D0012000F09CFA46
:101F4C001CE00A4B00221A60FFF7FAFB38610FE025
:101F5C00FFF7F6FB02463B69D31A022B08D9032381
:101F6C0046E100BF001002400000424280044242A1
:101F7C00924B5B6A03F00203002BE9D17B681B6870
:101F8C0003F00403002B00F0A6800023FB758B4BA1
:101F9C00DB6903F08053002B0DD1884BDB69874A3A
:101FAC0043F08053D361854BDB6903F08053BB60F6
:101FBC00BB680123FB75824B1B6803F48073002BF9
:101FCC0018D17F4B1B687E4A43F480731360FFF774
:101FDC00B7FB386108E0FFF7B3FB02463B69D31A45
:101FEC00642B01D9032303E1754B1B6803F4807345
:101FFC00002BF0D07B68DB68012B06D16F4B1B6A82
:10200C006E4A43F0010313622DE07B68DB68002B02
:10201C000CD16A4B1B6A694A23F001031362674BAC
:10202C001B6A664A23F0040313621CE07B68DB68BE
:10203C00052B0CD1614B1B6A604A43F004031362FD
:10204C005E4B1B6A5D4A43F0010313620BE05B4B72
:10205C001B6A5A4A23F001031362584B1B6A574AF6
:10206C0023F0040313627B68DB68002B15D0FFF7A9
:10207C0067FB38610AE0FFF763FB02463B69D31A42
:10208C0041F28832934201D90323B1E04B4B1B6AD6
:10209C0003F00203002BEED014E0FFF751FB386184
:1020AC000AE0FFF74DFB02463B69D31A41F2883236
:1020BC00934201D903239BE0404B1B6A03F00203BC
:1020CC00002BEED1FB7D012B05D13C4BDB693B4A50
:1020DC0023F08053D3617B68DB69002B00F0878091
:1020EC00364B5B6803F00C03082B61D07B68DB6913
:1020FC00022B46D1334B00221A60FFF721FB3861CB
:10210C0008E0FFF71DFB02463B69D31A022B01D9ED
:10211C0003236DE0294B1B6803F00073002BF0D1F7
:10212C007B681B6AB3F5803F08D1244B5B6823F4B2
:10213C0000327B689B68214913434B601F4B5B68E3
:10214C0023F474127B68196A7B685B6A0B431B4926
:10215C0013434B601B4B01221A60FFF7F1FA3861F5
:10216C0008E0FFF7EDFA02463B69D31A022B01D9BE
:10217C0003233DE0114B1B6803F00073002BF0D0E0
:10218C0035E0104B00221A60FFF7DAFA386108E0EC
:10219C00FFF7D6FA02463B69D31A022B01D9032367
:1021AC0026E0064B1B6803F00073002BF0D11EE0F9
:1021BC007B68DB69012B07D1012319E00010024079
:1021CC0000700040600042420B4B5B68FB60FB6898
:1021DC0003F480327B681B6A9A4206D1FB6803F4D5
:1021EC0070127B685B6A9A4201D0012300E00023E5
:1021FC0018461837BD4680BD0010024080B584B02B
:10220C0000AF786039607B68002B01D10123D0E0EE
:10221C006A4B1B6803F007033A689A4210D9674B64
:10222C001B6823F0070265493B6813430B60634B43
:10223C001B6803F007033A689A4201D00123B8E007
:10224C007B681B6803F00203002B20D07B681B68A3
:10225C0003F00403002B05D0594B5B68584A43F438
:10226C00E06353607B681B6803F00803002B05D008
:10227C00534B5B68524A43F460535360504B5B685A
:10228C0023F0F0027B689B684D4913434B607B68DD
:10229C001B6803F00103002B40D07B685B68012BAB
:1022AC0007D1474B1B6803F40033002B15D10123D6
:1022BC007FE07B685B68022B07D1414B1B6803F006
:1022CC000073002B09D1012373E03D4B1B6803F015
:1022DC000203002B01D101236BE0394B5B6823F027
:1022EC0003027B685B68364913434B60FFF728FA9F
:1022FC00F8600AE0FFF724FA0246FB68D31A41F2B1
:10230C008832934201D9032353E02D4B5B6803F0D1
:10231C000C027B685B689B009A42EBD1274B1B68D5
:10232C0003F007033A689A4210D2244B1B6823F03F
:10233C00070222493B6813430B60204B1B6803F0D8
:10234C0007033A689A4201D0012332E07B681B688C
:10235C0003F00403002B08D0194B5B6823F4E062F4
:10236C007B68DB68164913434B607B681B6803F082
:10237C000803002B09D0124B5B6823F460527B6876
:10238C001B69DB000E4913434B6000F021F8024639
:10239C000B4B5B681B0903F00F030A49CB5C22FA59
:1023AC0003F3094A1360094B1B681846FFF786F9BB
:1023BC00002318461037BD4680BD00BF00200240E8
:1023CC0000100240002D00084C000020500000209E
:1023DC0080B487B000AF0023FB600023BB600023F8
:1023EC007B6100237B6000233B611E4B5B68FB60C1
:1023FC00FB6803F00C03042B02D0082B03D027E05E
:10240C00194B3B6127E0FB689B0C03F00F03174A49
:10241C00D35C7B60FB6803F48033002B10D0114B32
:10242C005B685B0C03F00103114AD35CBB607B68F7
:10243C000D4A03FB02F2BB68B2FBF3F37B6104E0D1
:10244C007B680C4A02FB03F37B617B693B6102E016
:10245C00054B3B6100BF3B6918461C37BD4680BC31
:10246C00704700BF0010024000127A00102D0008C7
:10247C00202D000800093D0080B485B000AF7860C5
:10248C000A4B1B680A4AA2FB03235B0A7A6802FB0D
:10249C0003F3FB6000BFFB685A1EFA60002BF9D1F6
:1024AC0000BF00BF1437BD4680BC70474C000020F5
:1024BC00D34D621080B582B000AF78607B68002B82
:1024CC0001D1012341E07B6893F83D30DBB2002B56
:1024DC0006D17B68002283F83C207868FFF756F819
:1024EC007B68022283F83D207B681A687B68043382
:1024FC001946104600F06EFA7B68012283F84620DC
:10250C007B68012283F83E207B68012283F83F2000
:10251C007B68012283F840207B68012283F84120EC
:10252C007B68012283F842207B68012283F84320D8
:10253C007B68012283F844207B68012283F84520C4
:10254C007B68012283F83D20002318460837BD46DE
:10255C0080BD000080B485B000AF78607B6893F8D4
:10256C003D30DBB2012B01D0012335E07B68022228
:10257C0083F83D207B681B68DA687B681B6842F037
:10258C000102DA607B681B68164A934209D07B68AB
:10259C001B68B3F1804F04D07B681B68124A9342CE
:1025AC0011D17B681B689B6803F00703FB60FB6819
:1025BC00062B10D07B681B681A687B681B6842F07E
:1025CC0001021A6007E07B681B681A687B681B684D
:1025DC0042F001021A60002318461437BD4680BC35
:1025EC00704700BF002C01400004004080B582B051
:1025FC0000AF78607B681B681B6903F00203022B39
:10260C0022D17B681B68DB6803F00203022B1BD111
:10261C007B681B686FF002021A617B6801221A77D3
:10262C007B681B689B6903F00303002B03D078685D
:10263C0000F0B4F905E0786800F0A7F9786800F0CC
:10264C00B6F97B6800221A777B681B681B6903F05C
:10265C000403042B22D17B681B68DB6803F00403A2
:10266C00042B1BD17B681B686FF004021A617B681A
:10267C0002221A777B681B689B6903F44073002B5A
:10268C0003D0786800F08AF905E0786800F07DF9ED
:10269C00786800F08CF97B6800221A777B681B68DD
:1026AC001B6903F00803082B22D17B681B68DB68CD
:1026BC0003F00803082B1BD17B681B686FF0080222
:1026CC001A617B6804221A777B681B68DB6903F04C
:1026DC000303002B03D0786800F060F905E07868FC
:1026EC0000F053F9786800F062F97B6800221A77E1
:1026FC007B681B681B6903F01003102B22D17B68CD
:10270C001B68DB6803F01003102B1BD17B681B6864
:10271C006FF010021A617B6808221A777B681B68BD
:10272C00DB6903F44073002B03D0786800F036F9B2
:10273C0005E0786800F029F9786800F038F97B68D2
:10274C0000221A777B681B681B6903F00103012BBD
:10275C000ED17B681B68DB6803F00103012B07D1EA
:10276C007B681B686FF001021A617868FEF778FDD0
:10277C007B681B681B6903F08003802B0ED17B6880
:10278C001B68DB6803F08003802B07D17B681B6818
:10279C006FF080021A61786800F06BFA7B681B6836
:1027AC001B6903F04003402B0ED17B681B68DB6870
:1027BC0003F04003402B07D17B681B686FF040028D
:1027CC001A61786800F0FCF87B681B681B6903F0E1
:1027DC002003202B0ED17B681B68DB6803F02003E1
:1027EC00202B07D17B681B686FF020021A61786878
:1027FC0000F036FA00BF0837BD4680BD80B584B006
:10280C0000AF786039600023FB737B6893F83C3031
:10281C00012B01D10223B4E07B68012283F83C2018
:10282C007B68022283F83D207B681B689B68BB6039
:10283C00BB6823F07703BB60BB6823F47F43BB60AA
:10284C007B681B68BA689A603B681B68B3F5005FCD
:10285C003ED0B3F5005F00F28780B3F5805F00F0E7
:10286C008680B3F5805F7FD8702B1AD0702B7BD805
:10287C00602B50D0602B77D8502B3CD0502B73D87A
:10288C00402B58D0402B6FD8302B64D0302B6BD8CA
:10289C00202B60D0202B67D8002B5CD0102B5AD06B
:1028AC0062E07B6818683B6899683B685A683B68CB
:1028BC00DB6800F05EF97B681B689B68BB60BB68DB
:1028CC0043F07703BB607B681B68BA689A604FE083
:1028DC007B6818683B6899683B685A683B68DB689A
:1028EC0000F047F97B681B689A687B681B6842F4A8
:1028FC0080429A603CE07B6818683B6859683B688A
:10290C00DB681A4600F0BEF87B681B68502118463D
:10291C0000F015F92CE07B6818683B6859683B6837
:10292C00DB681A4600F0DCF87B681B6860211846EF
:10293C0000F005F91CE07B6818683B6859683B6837
:10294C00DB681A4600F09EF87B681B68402118462D
:10295C0000F0F5F80CE07B681A683B681B681946B8
:10296C00104600F0ECF803E00123FB7300E000BF1D
:10297C007B68012283F83D207B68002283F83C2091
:10298C00FB7B18461037BD4680BD80B483B000AFCA
:10299C00786000BF0C37BD4680BC704780B483B0F4
:1029AC0000AF786000BF0C37BD4680BC704780B468
:1029BC0083B000AF786000BF0C37BD4680BC704759
:1029CC0080B483B000AF786000BF0C37BD4680BCCC
:1029DC007047000080B485B000AF786039607B68C8
:1029EC001B68FB607B68254A934207D07B68B3F178
:1029FC00804F03D07B68224A934208D1FB6823F0B6
:102A0C007003FB603B685B68FA681343FB607B6890
:102A1C001A4A934207D07B68B3F1804F03D07B688E
:102A2C00174A934208D1FB6823F44073FB603B6860
:102A3C00DB68FA681343FB60FB6823F080023B6899
:102A4C005B691343FB607B68FA681A603B689A68A1
:102A5C007B68DA623B681A687B689A627B68074A13
:102A6C00934203D13B681A697B681A637B68012225
:102A7C005A6100BF1437BD4680BC7047002C014022
:102A8C000004004080B487B000AFF860B9607A6091
:102A9C00FB681B6A7B61FB681B6A23F00102FB6805
:102AAC001A62FB689B693B613B6923F0F0033B6155
:102ABC007B681B013A6913433B617B6923F00A0372
:102ACC007B617A69BB6813437B61FB683A699A61E5
:102ADC00FB687A691A6200BF1C37BD4680BC704720
:102AEC0080B487B000AFF860B9607A60FB681B6A8D
:102AFC007B61FB681B6A23F01002FB681A62FB689F
:102B0C009B693B613B6923F470433B617B681B030E
:102B1C003A6913433B617B6923F0A0037B61BB687B
:102B2C001B017A6913437B61FB683A699A61FB6804
:102B3C007A691A6200BF1C37BD4680BC704780B4EE
:102B4C0085B000AF786039607B689B68FB60FB6880
:102B5C0023F07003FB603A68FB68134343F00703F0
:102B6C00FB607B68FA689A6000BF1437BD4680BC76
:102B7C00704780B487B000AFF860B9607A603B6092
:102B8C00FB689B687B617B6923F47F437B613B68BB
:102B9C001A027B681A43BB6813437A6913437B613F
:102BAC00FB687A699A6000BF1C37BD4680BC7047D1
:102BBC0080B485B000AF786039607B6893F83C30A6
:102BCC00012B01D1022341E07B68012283F83C20D8
:102BDC007B68022283F83D207B681B685B68FB6086
:102BEC007B681B689B68BB60FB6823F07003FB6011
:102BFC003B681B68FA681343FB607B681B68FA68C8
:102C0C005A607B681B68144A934209D07B681B6826
:102C1C00B3F1804F04D07B681B68104A93420CD1EF
:102C2C00BB6823F08003BB603B685B68BA681343E6
:102C3C00BB607B681B68BA689A607B68012283F86A
:102C4C003D207B68002283F83C2000231846143773
:102C5C00BD4680BC704700BF002C01400004004002
:102C6C0080B483B000AF786000BF0C37BD4680BC29
:102C7C00704780B483B000AF786000BF0C37BD469E
:102C8C0080BC704703460244934200D1704703F85E
:102C9C00011BF9E770B500260C4D0D4C641BA410FC
:102CAC00A64209D100F01AF800260A4D0A4C641B02
:102CBC00A410A64205D170BD55F8043B98470136C7
:102CCC00EEE755F8043B98470136F2E7242D00084F
:102CDC00242D0008242D0008282D0008F8B500BF6D
:102CEC00F8BC08BC9E467047F8B500BFF8BC08BCE1
:042CFC009E46704739
:102D0000000000000000000001020304060708099B
:102D100002030405060708090A0B0C0D0E0F10101C
:042D200001020000AC
:042D24003101000871
:042D28000D01000891
:102D2C0000200000004000000080000001000000B6
:102D3C000100000001000000010000000100000083
:102D4C000100000001000000010000000100000073
:102D5C00010000000100000001000000F40100006F
:102D6C000A00000006000000040000000024F4002B
:082D7C0010000000010000003E
:040000050800165188
:00000001FF
